:100000000C94810D0C94A90D0C94A90D0C94A90DC0
:100010000C94A90D0C94A90D0C94A90D0C94A90D88
:100020000C94A90D0C94A90D0C940B150C9484152B
:100030000C94A90D0C94A90D0C94A90D0C94A90D68
:100040000C94A90D0C94A90D0C94A90D0C94A90D58
:100050000C94A90D0C94A90D0C94A90D0C946A1480
:100060000C94A90D0C94B1170C94D8170C94051886
:100070000C94A90D0C94A90D0C94A90D0C94A90D28
:100080000C94A90D0C94A90D0C94A90D0C94A90D18
:100090000C94A90D0C94A90D0C94A90D0C94A90D08
:1000A0000C94A90D0C94A90D0C94A90D31003100EC
:1000B00031003100310031003100310031003100B8
:1000C00031003100310031003100300030003000AB
:1000D00030003000300030003000300030003000A0
:1000E00030002F002F002F002F002F002F002F0097
:1000F0002F002E002E002E002E002E002E002D0090
:100100002D002D002D002D002D002C002C002C008A
:100110002C002C002B002B002B002B002B002A0086
:100120002A002A002A002A00290029002900290083
:100130002800280028002800270027002700270083
:100140002600260026002600260025002500250082
:100150002500240024002400240023002300230081
:100160002300230023002300240024002400240073
:100170002500250025002500260026002600260053
:100180002600270027002700270028002800280035
:10019000280029002900290029002A002A002A0015
:1001A0002A002A002B002B002B002B002B002C00F8
:1001B0002C002C002C002C002D002D002D002D00DB
:1001C0002D002D002E002E002E002E002E002E00C1
:1001D0002F002F002F002F002F002F002F002F00A7
:1001E000300030003000300030003000300030008F
:1001F000300030003000300031003100310031007B
:100200003100310031003100310031003100310066
:100210003100310031003100310031003100310056
:100220003100310031003100310031003100310046
:10023000310030003000300030003000300030003D
:10024000300030003000300030002F002F002F0031
:100250002F002F002F002F002F002E002E002E0029
:100260002E002E002E002D002D002D002D002D0023
:100270002D002C002C002C002C002C002B002B001F
:100280002B002B002B002A002A002A002A002A001B
:10029000290029002900290028002800280028001A
:1002A000270027002700270026002600260026001A
:1002B0002600250025002500250024002400240018
:1002C0002400230023002300230023002300230015
:1002D00024002400240024002500250025002500FA
:1002E00026002600260026002600270027002700DB
:1002F00027002800280028002800290029002900BC
:1003000029002A002A002A002A002A002B002B009C
:100310002B002B002B002C002C002C002C002C0080
:100320002D002D002D002D002D002D002E002E0063
:100330002E002E002E002E002F002F002F002F0049
:100340002F002F002F002F00300030003000300031
:10035000300030003000300030003000300030001D
:100360003100310031003100310031003100310005
:10037000310031003100310031003100140014002F
:1003800014001400140014001400140014001400CD
:1003900014001400140014001400150015001500BA
:1003A00015001500150015001500150015001500A5
:1003B000150016001600160016001600160016008E
:1003C0001600170017001700170017001700180075
:1003D000180018001800180018001900190019005A
:1003E000190019001A001A001A001A001A001B003E
:1003F0001B001B001B001B001C001C001C001C0021
:100400001D001D001D001D001E001E001E001E0000
:100410001F001F001F001F001F00200020002000E1
:1004200020002100210021002100220022002200C2
:1004300022002200220022002100210021002100B0
:1004400020002000200020001F001F001F001F00B0
:100450001F001E001E001E001E001D001D001D00AE
:100460001D001C001C001C001C001B001B001B00AE
:100470001B001B001A001A001A001A001A001900AB
:1004800019001900190019001800180018001800A8
:1004900018001800170017001700170017001700A2
:1004A000160016001600160016001600160016009C
:1004B0001500150015001500150015001500150094
:1004C0001500150015001500140014001400140088
:1004D000140014001400140014001400140014007C
:1004E000140014001400140014001400140014006C
:1004F000140014001400140014001400140014005C
:100500001400150015001500150015001500150044
:100510001500150015001500150016001600160030
:100520001600160016001600160017001700170018
:1005300017001700170018001800180018001800FE
:100540001800190019001900190019001A001A00E2
:100550001A001A001A001B001B001B001B001B00C6
:100560001C001C001C001C001D001D001D001D00A7
:100570001E001E001E001E001F001F001F001F0087
:100580001F00200020002000200021002100210069
:10059000210022002200220022002200220022004C
:1005A0002100210021002100200020002000200047
:1005B0001F001F001F001F001F001E001E001E0046
:1005C0001E001D001D001D001D001C001C001C0045
:1005D0001C001B001B001B001B001B001A001A0044
:1005E0001A001A001A001900190019001900190040
:1005F000180018001800180018001800170017003D
:100600001700170017001700160016001600160036
:10061000160016001600160015001500150015002E
:100620001500150015001500150015001500150022
:10063000140014001400140014001400140014001A
:100640001400140014001400140014000000000032
:10065000000000000000000000000000000000009A
:10066000000000000000000000000000000000008A
:10067000000000000000000000000000000000007A
:10068000000000000000000000000000000000006A
:100910000000000000000000000000003900390065
:1009200039003900390039003900390039003900FF
:1009300039003900390039003900380038003800F2
:1009400038003800380038003800370037003700EA
:1009500037003700370036003600360036003600E4
:1009600035003500350035003400340034003400E3
:1009700033003300330033003200320032003100E4
:100980003100310031003000300030002F002F00E6
:100990002F002E002E002E002D002D002C002C00EC
:1009A0002C002B002B002B002A002A002A002900F3
:1009B00029002800280028002700270026002600FC
:1009C0002600250025002400240024002300230005
:1009D00023002300230024002400240025002500F8
:1009E00026002600260027002700280028002800CF
:1009F000290029002A002A002A002B002B002B00A6
:100A00002C002C002C002D002D002E002E002E007E
:100A10002F002F002F003000300030003100310057
:100A20003100310032003200320033003300330035
:100A30003300340034003400340035003500350014
:100A400035003600360036003600360037003700F5
:100A500037003700370037003800380038003800DA
:100A600038003800380038003900390039003900C2
:100A700039003900390039003900390039003900AE
:100A8000390039003900390039003900390039009E
:100A9000390039003900390039003900390039008E
:100AA0003900380038003800380038003800380085
:100AB000380037003700370037003700370036007E
:100AC000360036003600360035003500350035007A
:100AD000340034003400340033003300330033007A
:100AE000320032003200310031003100310030007C
:100AF000300030002F002F002F002E002E002E007F
:100B00002D002D002C002C002C002B002B002B0086
:100B10002A002A002A00290029002800280028008D
:100B20002700270026002600260025002500240097
:100B3000240024002300230023002300230024009A
:100B4000240024002500250026002600260027007A
:100B50002700280028002800290029002A002A0050
:100B60002A002B002B002B002C002C002C002D0029
:100B70002D002E002E002E002F002F002F00300001
:100B800030003000310031003100310032003200DD
:100B900032003300330033003300340034003400BB
:100BA000340035003500350035003600360036009B
:100BB000360036003700370037003700370037007F
:100BC0003800380038003800380038003800380065
:100BD000390039003900390039003900390039004D
:100BE0003900390039003900390039000C000C0097
:100BF0000C000C000C000C000C000C000C000C0095
:100C00000C000C000C000C000C000D000D000D0081
:100C10000D000D000D000D000D000E000E000E0069
:100C20000E000E000E000F000F000F000F000F004F
:100C30001000100010001000110011001100110030
:100C4000120012001200120013001300130014000F
:100C500014001400140015001500150016001600ED
:100C600016001700170017001800180019001900C7
:100C700019001A001A001A001B001B001B001C00A0
:100C80001C001D001D001D001E001E001F001F0077
:100C90001F0020002000210021002100220022004E
:100CA000220022002200210021002100200020003B
:100CB0001F001F001F001E001E001D001D001D0044
:100CC0001C001C001B001B001B001A001A001A004D
:100CD0001900190019001800180017001700170054
:100CE000160016001600150015001500140014005B
:100CF000140014001300130013001200120012005D
:100D0000120011001100110011001000100010005D
:100D100010000F000F000F000F000F000E000E005C
:100D20000E000E000E000E000D000D000D000D0057
:100D30000D000D000D000D000C000C000C000C004F
:100D40000C000C000C000C000C000C000C000C0043
:100D50000C000C000C000C000C000C000C000C0033
:100D60000C000C000C000C000C000C000C000C0023
:100D70000C000D000D000D000D000D000D000D000C
:100D80000D000E000E000E000E000E000E000F00F3
:100D90000F000F000F000F001000100010001000D7
:100DA00011001100110011001200120012001200B7
:100DB0001300130013001400140014001400150095
:100DC0001500150016001600160017001700170072
:100DD000180018001900190019001A001A001A004A
:100DE0001B001B001B001C001C001D001D001D0023
:100DF0001E001E001F001F001F00200020002100F9
:100E000021002100220022002200220022002100D5
:100E100021002100200020001F001F001F001E00D5
:100E20001E001D001D001D001C001C001B001B00DF
:100E30001B001A001A001A001900190019001800E6
:100E400018001700170017001600160016001500EE
:100E500015001500140014001400140013001300F2
:100E600013001200120012001200110011001100F4
:100E7000110010001000100010000F000F000F00F4
:100E80000F000F000E000E000E000E000E000E00F0
:100E90000D000D000D000D000D000D000D000D00EA
:100EA0000C000C000C000C000C000C000C000C00E2
:100EB0000C000C000C000C000C000C0001000100E8
:100EC000010001000100010001000100010001001A
:100ED000010001000100010001000100010001000A
:100EE00001000100010001000100010001000100FA
:100EF00001000100010001000100010001000100EA
:100F000000000000000000000000000000000000E1
:100F100000000000000000000000000000000000D1
:100F200000000000000000000000000000000000C1
:100F300000000000000000000000000000000000B1
:100F400000000000000000000000000000000000A1
:100F50000000000000000000000000000000000091
:100F60000000000000000000000000000000000081
:100F70000000000000000000000000000000000071
:100F80000000000000000000000000000000000061
:100F90000000000000000000000000000000000051
:100FA0000000000000000000000000000000000041
:100FB0000000000000000000000000000000000031
:100FC0000000000000000000000000000000000021
:100FD0000000000000000000000000000000000011
:100FE00000000100010001000100010001000100FA
:100FF00001000100010001000100010001000100E9
:1010000001000100010001000100010001000100D8
:1010100001000100010001000100010001000100C8
:1010200001000100010001000100010001000100B8
:1010300001000100010001000100010001000100A8
:101040000100010001000100010001000100010098
:101050000100010001000100010001000100010088
:10106000010001000100010000000000000000007C
:101070000000000000000000000000000000000070
:101080000000000000000000000000000000000060
:101090000000000000000000000000000000000050
:1010A0000000000000000000000000000000000040
:1010B0000000000000000000000000000000000030
:1010C0000000000000000000000000000000000020
:1010D0000000000000000000000000000000000010
:1010E0000000000000000000000000000000000000
:1010F00000000000000000000000000000000000F0
:1011000000000000000000000000000000000000DF
:1011100000000000000000000000000000000000CF
:1011200000000000000000000000000000000000BF
:1011300000000000000000000000000000000000AF
:10114000000000000000000000000100010001009C
:101150000100010001000100010001000100010087
:101160000100010001000100010001000100010077
:101170000100010001000100010001000100010067
:1011800001000100010001000100010047004700CB
:10119000470047004700460046004600460046001C
:1011A0004600460046004600460045004500450012
:1011B000450045004400440044004400440043000E
:1011C0004300430042004200420041004100410010
:1011D0004000400040003F003F003F003E003E0016
:1011E0003D003D003C003C003C003B003B003A0021
:1011F0003A0039003900380038003700370036002F
:101200003600350035003400330033003200320040
:101210003100310030002F002F002E002E002D0055
:101220002C002C002B002B002A002900290028006C
:101230002800270026002600250024002400230083
:101240002300230024002400250026002600270078
:1012500028002800290029002A002B002B002C0040
:101260002C002D002E002E002F002F00300031000A
:1012700031003200320033003300340035003500D5
:1012800036003600370037003800380039003900A2
:101290003A003A003B003B003C003C003C003D0073
:1012A0003D003E003E003F003F003F004000400048
:1012B0004000410041004100420042004200430022
:1012C00043004300440044004400440044004500FF
:1012D00045004500450045004600460046004600E2
:1012E00046004600460046004600460047004700CC
:1012F00047004700470047004700470047004600B7
:1013000046004600460046004600460046004600AD
:1013100046004500450045004500450044004400A6
:1013200044004400440043004300430042004200A4
:1013300042004100410041004000400040003F00A9
:101340003F003F003E003E003D003D003C003C00B1
:101350003C003B003B003A003A00390039003800BD
:1013600038003700370036003600350035003400CD
:1013700033003300320032003100310030002F00E2
:101380002F002E002E002D002C002C002B002B00F7
:101390002A0029002900280028002700260026000E
:1013A000250024002400230023002300240024001F
:1013B00025002600260027002800280029002900F3
:1013C0002A002B002B002C002C002D002E002E00BC
:1013D0002F002F0030003100310032003200330086
:1013E0003300340035003500360036003700370052
:1013F00038003800390039003A003A003B003B0021
:101400003C003C003C003D003D003E003E003F00F3
:101410003F003F00400040004000410041004100CB
:1014200042004200420043004300430044004400A5
:101430004400440044004500450045004500450087
:10144000460046004600460046004600460046006C
:10145000460046004700470047004700FFFFFFFFE8
:10146000FFFFFFFFFFFF0000000000000000000082
:10147000000000000000000000000000000000006C
:101480000000000001000100010001000100020055
:101490000200020003000300030004000400040033
:1014A000050005000500060006000600070007000D
:1014B000080008000900090009000A000A000B00E2
:1014C0000B000C000C000D000D000E000E000F00B4
:1014D0000F00100010001100120012001300130082
:1014E000140014001500160016001700170018004D
:1014F000190019001A001A001B001C001C001D0016
:101500001D001E001F001F002000210021002200DE
:10151000220022002100210020001F001F001E00C9
:101520001D001D001C001C001B001A001A001900E1
:1015300019001800170017001600160015001400F7
:10154000140013001300120012001100100010000C
:101550000F000F000E000E000D000D000C000C001F
:101560000B000B000A000A0009000900090008002E
:101570000800070007000600060006000500050039
:10158000050004000400040003000300030002003F
:101590000200020001000100010001000100000042
:1015A000000000000000000000000000000000003B
:1015B000000000000000000000000000FFFFFFFF2F
:1015C000FFFFFFFFFFFFFFFFFFFFFFFFFFFF000029
:1015D000000000000000000000000000000000000B
:1015E00000000000000000000000000001000100F9
:1015F00001000100010002000200020003000300DC
:1016000003000400040004000500050005000600B6
:10161000060006000700070008000800090009008E
:1016200009000A000A000B000B000C000C000D0062
:101630000D000E000E000F000F0010001000110032
:1016400012001200130013001400140015001600FD
:101650001600170017001800190019001A001A00C8
:101660001B001C001C001D001D001E001F001F0091
:101670002000210021002200220022002100210060
:1016800020001F001F001E001D001D001C001C006C
:101690001B001A001A001900190018001700170083
:1016A0001600160015001400140013001300120099
:1016B00012001100100010000F000F000E000E00AD
:1016C0000D000D000C000C000B000B000A000A00BE
:1016D00009000900090008000800070007000600CB
:1016E00006000600050005000500040004000400D3
:1016F00003000300030002000200020001000100D9
:1017000001000100010000000000000000000000D6
:1017100000000000000000000000000000000000C9
:1017200000000000FFFFFFFFFFFFFFFF01000100BF
:1017300001000100010001000100010001000100A1
:101740000100010001000100010001000100010091
:101750000100010001000100010001000100010081
:101760000100010001000100010001000100010071
:101770000100010001000100010001000100010061
:101780000100010001000100010001000100010051
:101790000100010001000100010001000100010041
:1017A0000100000000000000000000000000000038
:1017B0000000000000000000000000000000000029
:1017C0000000000000000000000000000000000019
:1017D0000000000000000000000000000000000009
:1017E00000000000000000000000000000000000F9
:1017F00000000000000000000000000000000000E9
:1018000000000000000000000000000000000000D8
:1018100000000000000000000000000000000000C8
:1018200001000100010001000100010001000100B0
:1018300001000100010001000100010001000100A0
:101840000100010001000100010001000100010090
:101850000100010001000100010001000100010080
:101860000100010001000100010001000100010070
:101870000100010001000100010001000100010060
:101880000100010001000100010001000100010050
:101890000100010001000100010001000100010040
:1018A0000100010001000100010001000100010030
:1018B0000100010001000100010001000100010020
:1018C0000100010001000100010001000100010010
:1018D0000100010001000100010001000100010000
:1018E00001000100010001000100010001000100F0
:1018F00001000100010001000100010001000100E0
:1019000001000100010001000100000000000000D2
:1019100000000000000000000000000000000000C7
:1019200000000000000000000000000000000000B7
:1019300000000000000000000000000000000000A7
:101940000000000000000000000000000000000097
:101950000000000000000000000000000000000087
:101960000000000000000000000000000000000077
:101970000000000000000000000000000000000067
:101980000000000000000000010001000100010053
:10199000010001000100010001000100010001003F
:1019A000010001000100010001000100010001002F
:1019B000010001000100010001000100010001001F
:1019C000010001000100010001000100010001000F
:1019D00001000100010001000100010001000100FF
:1019E00001000100010001000100010001000100EF
:1019F0000100010001000100010001000123022398
:101A000004230823802301290229042908294026C8
:101A1000802640298029102320234023802F402F17
:101A2000202F102F022F012F10292029402C0001D8
:101A30000000DF1A12000200009C1A43000300009D
:101A4000981A04010309047E1A1802030904661A8D
:101A50001603030904581A0C0C033100320033003A
:101A600034003500000016035500530042002000EA
:101A7000530065007200690061006C0000001803EB
:101A80005400650065006E00730079006400750005
:101A900069006E006F00000004030904090243009E
:101AA000020100C032090400000102020100052405
:101AB000001001052401000104240206052406008B
:101AC000010705820308004009040100020A000022
:101AD00000070503024000000705840240000012D1
:101AE00001000202000020C016830400010102036D
:101AF000010001C10201803601813600AE111F18BC
:101B00007B1B11241FBECFEFDAE0DEBFCDBF11E09B
:101B1000A0E0B1E0ECE5FBE302C005900D92A83235
:101B2000B107D9F721E0A8E2B1E001C01D92AB3FB7
:101B3000B207E1F71DE0C1E8DDE004C02197FE0136
:101B40000E94791DCE37D107C9F70E9402190C9463
:101B5000AC1D0C940000CF92DF92EF92FF920F9396
:101B60001F93CF93DF936B017C01C42FD22F8B0186
:101B70009C013695279517950795C901B8016058BE
:101B80007B47814E9F4FA70196010E943B1DCA01D2
:101B9000B9014FEF8CE791E00E946F1744E650E0E7
:101BA00060E070E08CE791E00E949418C0932901F6
:101BB000D09328018C2FBED580912801BBD5E09110
:101BC0002901F0E0C8D5E0912801F0E0C4D5DF910B
:101BD000CF911F910F91FF90EF90DF90CF900895DC
:101BE000FC0160832091290121830895209129011E
:101BF000FC0121830895DC011196EC91F0E0ABC566
:101C00000895DC011196EC91F0E0ABC508954F9278
:101C10005F926F927F928F929F92AF92BF92CF927C
:101C2000DF92EF92FF920F931F93CF93DF93CDB785
:101C3000DEB7A0970FB6F894DEBF0FBECDBF7C0114
:101C4000762E142F6901D7DF8FEF898B8A8B7B8AE1
:101C500092E0900F9C8B1D8B970D910FDE01569695
:101C6000F601AD01202F30E0BF016C197D0962172C
:101C7000730724F481918D93980FF6CFFA01E20F48
:101C8000F31F909590838C898C5F2E0191E1490E12
:101C9000511C4201A82EB12CC401841995098A1542
:101CA0009B0544F4F40161914F018CE791E00E949F
:101CB0002817F2CF8CE791E00E942317FEEF7F12E6
:101CC00005C0113059F0E12CF12C63C0123031F411
:101CD000F601018126E0622E600E02C096E0692EB8
:101CE000C7018FDFA62CB12CA501CE0101964C01B6
:101CF000BC018CE791E00E949A18582EC7017BDF47
:101D0000651421F0E12CFF24F39402C0E12CF12CA6
:101D100089818F3F19F48A818F3F11F06894F1F81F
:101D20008B81871511F06894F2F88D81882339F042
:101D3000082E000C990B0E940119E82AF92AFE01CD
:101D4000339680E09F01281939092A153B051CF4B8
:101D50009191890FF7CF8F3F11F06894F3F88D813F
:101D6000811117C0F0FC15C0113021F48B81F601F0
:101D700080830FC0123069F4DE011696F60110E080
:101D8000CF018C199D09801791071CF48D918193C7
:101D9000F7CFC701A0960FB6F894DEBF0FBECDBF38
:101DA000DF91CF911F910F91FF90EF90DF90CF9037
:101DB000BF90AF909F908F907F906F905F904F906B
:101DC00008950F93CF93DF9300D01F92CDB7DEB766
:101DD0002EE129836A837B8303E09E012F5F3F4FBF
:101DE000FC01608114DF0F900F900F90DF91CF9175
:101DF0000F9108950F93CF93DF9300D0CDB7DEB747
:101E000028E129836A8302E09E012F5F3F4FFC0196
:101E10006081FDDE0F900F90DF91CF910F910895BB
:101E20000F93CF93DF9300D01F92CDB7DEB720E2A0
:101E300029836A837B8303E09E012F5F3F4FFC0170
:101E40006081E5DE0F900F900F90DF91CF910F91A1
:101E500008957F707068E4CF0F931F93CF93DF9343
:101E600000D000D01F92CDB7DEB726E029836A8369
:101E70007B834C835D8305E09E012F5F3F4F43E0F2
:101E8000FC016081C4DE8C016AE070E080E090E0DB
:101E900061D5C8010F900F900F900F900F90DF91B8
:101EA000CF911F910F9108950F931F93CF93DF93BD
:101EB00000D0CDB7DEB72BE029836A8302E09E0114
:101EC0002F5F3F4F43E0FC016081A1DE8C016AE09F
:101ED00070E080E090E03ED5C8010F900F90DF9158
:101EE000CF911F910F9108950F93CF93DF9300D05F
:101EF000CDB7DEB729E129836A8302E09E012F5F17
:101F00003F4FFC01608183DE0F900F90DF91CF91F6
:101F10000F910895CF92DF92EF92FF920F93CF939C
:101F2000DF9300D000D01F92CDB7DEB76C018AE1FD
:101F300089836A834B832C830D8305E09E012F5F89
:101F40003F4F43E0F6016081C60161DE009769F40E
:101F500080E38983EA82FB8203E09E012F5F3F4F8B
:101F600043E0F6016081C60152DE0F900F900F90A2
:101F70000F900F90DF91CF910F91FF90EF90DF9036
:101F8000CF9008950F939B0144E2FB01408342E010
:101F9000418302E0FC0160813ADE0F91089568E61A
:101FA00071E00E94281D97FF02C088599E4F089536
:101FB000AF92BF92CF92DF92EF92FF920F931F9357
:101FC000CF93DF9380913B0190E0880F991F68E3E6
:101FD00071E08C599E4FD6DF10913B01C12FD0E0AC
:101FE00060913901637070E0762F66278091380127
:101FF000682B072E000C880B990B0E942A1C20E0EE
:1020000030E044EB53E40E94B61C20E030E048E8A6
:1020100054E40E948F1B0E94F71BCC0FDD1FC05B96
:10202000DE4F79836883113009F5072E000C880B89
:10203000990B1F921F921F922DE22F9320EAA22E3E
:10204000B12CC12CD12C17E6E12EFF24F39400E033
:1020500010E024E130E040E050E00E94C2187983B3
:1020600068830F900F900F900F9009C0133039F4D0
:1020700028E631E0C901861B970B99838883C091BC
:102080003B01C230A9F0C330B1F1C13009F05DC0ED
:10209000809152019091530190933F0180933E01B2
:1020A00080915C0190915D0190934901809348017A
:1020B000209152013091530180915401909155012A
:1020C000820F931F845B91096ADF90934101809393
:1020D000400120915C0130915D0180915E01909101
:1020E0005F01820F931F845B910959DF90934B012D
:1020F00080934A012AC0209152013091530180916E
:10210000540190915501820F931F209156013091F7
:102110005701820F931F43DF909343018093420145
:1021200020915C0130915D0180915E0190915F0191
:10213000820F931F2091600130916101820F931FE4
:102140002EDF90934D0180934C01CF5FC53018F482
:10215000C0933B0102C010923B01DF91CF911F91D0
:102160000F91FF90EF90DF90CF90BF90AF900895C8
:10217000AF92BF92CF92DF92EF92FF920F93CF93E5
:10218000DF93569A5E9A40E950ED63E070E081EF8C
:1021900091E00E94801A81EF91E00E94771B8823D2
:1021A000D1F35E9828E043E060E970ED83E090E0D1
:1021B000D2DC8EE691E01ADDC4E6D1E040E5C42E23
:1021C00041E0D42E5AE5A52E51E0B52ECE010EDD0C
:1021D00060E5CE0169DE38E2E32EF12C04E624E668
:1021E00040E060E0CE0196DE4FE354E060E070E056
:1021F000CE0132DE43E061E0CE0176DED9DEF601CB
:10220000819191916F01F501819391935F012296E4
:10221000FAE5CF16F1E0DF06C9F687E691E0F1D7DF
:102220009C01A0E4B4E00E947F1D28E6C22EDD24BC
:10223000D394E12CF12CA70196010E943B1DC9010A
:10224000E0D7EC0184E190E0DCD79C01A0E4B4E0AD
:102250000E947F1DA70196010E943B1DC901D1D795
:10226000BC01AE0186E691E0F7DD80E491E0C9D7DC
:102270009C01A0E4B4E00E947F1DA70196010E948A
:102280003B1DC901BED7EC0184E190E0BAD79C01A7
:10229000A0E4B4E00E947F1DA70196010E943B1DAF
:1022A000C901AFD7BC01AE0188E691E0D5DD88E178
:1022B00091E0A7D79C01A0E4B4E00E947F1DA70194
:1022C00096010E943B1DC9019CD7EC0180E590E07E
:1022D00098D79C01A0E4B4E00E947F1DA70196015D
:1022E0000E943B1DC9018DD7BC01AE018AE691E079
:1022F000B3DD8CE291E085D79C01A0E4B4E00E94BC
:102300007F1DA70196010E943B1DC9017AD7EC01F0
:1023100088E790E076D79C01A0E4B4E00E947F1D9E
:10232000A70196010E943B1DC9016BD7BC01AE01FC
:102330008CE691E091DD43E060E08EE691E0D4DD53
:1023400064E670E080E090E0DF91CF910F91FF9024
:10235000EF90DF90CF90BF90AF90FCC26EEF8EE613
:1023600091E03EDC61E084E691E03ADC62E086E602
:1023700091E036DC63E088E691E032DC64E08AE6F6
:1023800091E02EDC65E08CE691E02ACC8F929F9262
:10239000AF92BF92CF92DF92EF92FF920F931F9373
:1023A000CF93DF9300D0CDB7DEB702DE809142013C
:1023B00090914301880F991FFC01E458FC4FC080A5
:1023C000D180FC01E455FF4FA080B180FC01E45BAB
:1023D000F94F8080918074010A2D2C2D40E060E03F
:1023E0008AE691E097DD8091400190914101880F4C
:1023F000991FFC01E451F44F20813181C20ED31E9C
:10240000FC01E45EF64F00811181A00EB11EFC01BB
:10241000E454F14FE080F1808E0C9F1C74010A2D72
:102420002C2D40E060E088E691E074DD80913E0173
:1024300090913F01880F991FFC01E45DF84EE08008
:10244000F180E80CF91CFC01E457FE4E008111817B
:102450000A0D1B1DFC01E45AFB4E208131812C0D1D
:102460003D1D40E060E086E691E054DD81EF91E0C3
:10247000E4D606970CF4E6C05E9A1A82198281EFC0
:1024800091E0DBD60697C4F041E050E0BE016E5FFC
:102490007F4F81EF91E00E94D11A8A81803F79F7C6
:1024A00041E050E0BE016F5F7F4F81EF91E00E94FD
:1024B000D11A8981803F19F78A81803F09F0C2C013
:1024C0008981803F09F0BEC044E050E06AE271E0DB
:1024D00081EF91E00E94D11A20912B0130E0322F40
:1024E000222780912C01B901682B7B0180912D015D
:1024F00080933A0190912A01892F82958F709924B7
:102500009A94980E9F709630E1F060F4953009F03F
:1025100099C0892D90E0880F991F43E08C599E4FF8
:1025200069DC90C0973009F455C09C3009F08AC02E
:1025300080E5C82E81E0D82E10E090EFF92E00EE55
:1025400059C021E0921651F033E0931224C088E67E
:1025500091E0FC01EE19FF097F011DC0B70180E089
:1025600090E01F921F921F9224E12F93E7E6AE2E78
:10257000BB24B394C12CD12C10EAE12EF12C00E045
:1025800010E02DE230E040E050E0FCD57B010F9000
:102590000F900F900F90C70134D69C01A0E4B4E0D7
:1025A0000E947F1D28E631E040E050E00E943B1D84
:1025B000C90127D6092D10E0000F111F43E0BC010F
:1025C000C8018C599E4FFDDBF801E65AFE4FF1829F
:1025D000E08238C0E114F10419F4EE24E394F12C04
:1025E000892D90E0880F991F43E0B7018C599E4FC9
:1025F00030DC28C0F601819191916F011F5FF0924C
:102600002E01F0922F0110923001212F2295207F70
:102610002093310110923201109233019C01222744
:102620003F7030933401809335010093360100935D
:1026300037014AE050E06EE271E081EF91E065D64B
:102640001530C1F690913A0180EF80932E0180936E
:102650002F0180E1809330019093310180EE8093CF
:1026600032018093330146E050E06EE271E081EF89
:1026700091E04BD65E980F900F90DF91CF911F9114
:102680000F91FF90EF90DF90CF90BF90AF909F9011
:102690008F9008951DBA109268001CBC10BE1FBA1E
:1026A00010927A0010926E0010926F0010927100DA
:1026B000109272001092C900ECEBF0E0108214B896
:1026C00017B81AB81DB810BA108215B818B81BB8C8
:1026D0001EB811BA0895F894E1E6F0E020E82083EE
:1026E000108283E084BD85BDEEE6F0E080818160EC
:1026F000808381E08093800092E0909381008093BA
:102700009000909391009093C00094E09093C1004A
:102710008093C2008093C3001092C40086E8809327
:102720007A0020937B0010927E0010927D0051D1A0
:1027300078940895893170F4ECEFF9E1880FE80F8F
:10274000F11D9591E491F0E08FB7F8942181922BDF
:1027500091838FBF0895E93150F4EE0FE854FC4E99
:102760000994E93120F4EE0FE651FC4E09940895E6
:10277000289A0895299A08952A9A08952B9A0895D7
:102780002F9A6AC0589A58C0599A08955A9A08952B
:102790005B9A0895469A66C0479A6AC05E9A089501
:1027A0005F9A6CC02C9A08952D9A4AC02E9A4EC0FA
:1027B0008F9A08958E9A08958D9A08958C9A089507
:1027C000899A0895889A08955C9A08955D9A089563
:1027D000769A089528980895299808952A98089532
:1027E0002B9808952F9838C0589826C05998089566
:1027F0005A9808955B980895469834C0479838C011
:102800005E9808955F983AC02C9808952D9818C046
:102810002E981CC08F9808958E9808958D980895CD
:102820008C98089589980895889808955C980895DB
:102830005D98089576980895E4B5EF7DE4BD089518
:10284000E0918000EF77E09380000895E0918000B0
:10285000EF7DE09380000895E0918000E77FE093B2
:1028600080000895E0919000EF77E0939000089544
:10287000E091C000EF77E093C0000895E091C200BE
:10288000E77FE093C2000895F89484B7877F84BF00
:10289000809160008061809360001092600080E20F
:1028A0009EE40197F1F781E08093E00080E280935D
:1028B000D80080E69AEE0197F1F7ECDE0C94003F29
:1028C000FFCFF894E7DE80E69AEE0197F1F70C94DB
:1028D0000000FFCF8F938FB78F93809170018D5F32
:1028E0008D37D0F480937001809171018F5F809358
:1028F0007101D8F0809172018F4F80937201A8F01E
:10290000809173018F4F8093730178F080917401EF
:102910008F4F8093740109C08D578093700180910F
:1029200071018E5F8093710128F7809175018C5F32
:102930008093750158F0809176018F4F80937601D6
:1029400028F0809177018F4F809377018F918FBF0F
:102950008F911895CF92DF92EF92FF926B017C01DD
:1029600019D09B01C114D104E104F10471F012D01B
:10297000621B730B683E7340A8F381E0C81AD1084C
:10298000E108F10828513C4FEDCFFF90EF90DF9028
:10299000CF9008950FB6F89466B515B27091750191
:1029A00080917601909177010FBE10FE05C06F3FB8
:1029B00019F07C5F8F4F9F4F11240024660F001C7D
:1029C000660F001C702908958091E80080FFFCCFFD
:1029D00008958091D80087FF02C085FF1BC081E069
:1029E0008093D70080EA8093D80082E189BD09B442
:1029F00000FEFDCF80E98093D8001092E000109295
:102A0000FD011092FC011092FB011092E1008DE09B
:102A10008093E20008951F920F920FB60F92112437
:102A20002F933F934F935F936F937F938F939F93D6
:102A3000AF93BF93EF93FF939091E1001092E10069
:102A400093FF11C01092E90081E08093EB00109297
:102A5000EC0082E28093ED0088E08093F000109219
:102A6000FD011092FB0192FF1DC08091FD018823A2
:102A7000C9F080917B01882359F0815080937B01BC
:102A8000811106C084E08093E9008AE38093E80026
:102A900080917A01882331F0815080937A018111ED
:102AA00001C0F2DE90FF0CC080E18093E200109242
:102AB000FD0181E08093FC0180EA8093D80019BC7D
:102AC0008091FC01882379F094FF0DC082E189BDDB
:102AD00009B400FEFDCF80E98093D8008DE080939B
:102AE000E2001092FC01FF91EF91BF91AF919F9195
:102AF0008F917F916F915F914F913F912F910F90A7
:102B00000FBE0F901F9018951F920F920FB60F9245
:102B10001124EF92FF920F931F932F933F934F93A4
:102B20005F936F937F938F939F93AF93BF93CF9355
:102B3000EF93FF931092E9008091E80083FF30C18A
:102B4000C091F1008091F100E090F100F090F1006F
:102B50000091F1001091F1002091F1003091F1000D
:102B600092EF9093E800863009F03FC086E0EEE2F5
:102B7000FAE1459155914E155F0511F0359615C056
:102B8000459155914017510711F033960EC045916C
:102B9000559184912F3F310519F010F02FEF30E05F
:102BA000281708F4822F3EEF08C0815011F7F8C0B3
:102BB000891B3093E8008823A9F09091E800292F21
:102BC0002570D9F392FDEFC0982F813208F090E282
:102BD000292F222369F3FA0145914093F100AF01B7
:102BE0002150F7CF903249F3DEC0853049F48EEFA3
:102BF0008093E800E9DE8E2D80688093E300D3C0E7
:102C0000893001F5C111CCC0E092FD011092FB01A9
:102C100010927B018EEF8093E80081E0E1EFFAE112
:102C20008093E90095919093EB00992331F0959171
:102C30009093EC0095919093ED008F5F853081F734
:102C40008EE1A9C0883049F4C03809F0A9C0BCDEC3
:102C50008091FD018093F1007DC0813279F4C13A09
:102C600009F09EC0B1DEE0E0F1E087E08E0F9081D8
:102C70009093F10031968E13FACF6CC0803209F038
:102C800047C0C13209F08CC08091E80082FFFCCFC0
:102C9000E0E0F1E087E08E0F9091F10090833196B3
:102CA0008E13FACF8BEF8093E8008EEF8093E800CD
:102CB00030910001409101018091020120910301B6
:102CC00090E0A0E0B0E0DC0199278827942B832BCB
:102CD000B22B86389105A105B10521F48FE08093D0
:102CE0007A0161C086399105A105B10509F05BC083
:102CF00084E08093E9009FEF8091EE00837039F0CB
:102D00009093E8008091E80082FDFCCFF5CFD9DDFB
:102D1000823231F4C13209F043C0E092FB0104C0B9
:102D2000833221F4C132E1F54FDE14C0811116C0A7
:102D30004BDEC23851F40093E9008091EB0085FB33
:102D4000882780F91092E90001C080E08093F100AB
:102D50001092F1008EEF8093E80025C0982F9D7FA0
:102D60009130F1F4C230E1F4EF28D1F40F779FEF06
:102D7000900F9630A8F49EEF9093E8000093E9003E
:102D8000833071F089E18093EB0081E090E001C035
:102D9000880F0A95EAF78093EA001092EA0003C0D0
:102DA00081E28093EB00FF91EF91CF91BF91AF91C2
:102DB0009F918F917F916F915F914F913F912F9153
:102DC0001F910F91FF90EF900F900FBE0F901F90EB
:102DD00018955091B0014091AF01852F90E0242FBC
:102DE00030E0541710F4805C9F4F821B930B0895C2
:102DF0008091B001E091AF018E1751F0EF5FE034A8
:102E000008F0E0E0F0E0EF54FE4F808190E008959C
:102E10008FEF9FEF08959091B0018091AF019817C7
:102E200079F09091AF019F5F903408F090E0E92F26
:102E3000F0E0EF54FE4F80819093AF0190E0089551
:102E40008FEF9FEF0895809184018111FCCF089549
:102E50002091C90023FD06C021E0FC01228380E00F
:102E600090E00895809107018F3F21F080918401C7
:102E7000882399F09091860180918501981312C062
:102E80008091C80085FF0EC08FB7F8946093CE0084
:102E900091E0909384018FBF1DC0E0910701F0E0A5
:102EA0005ADCE8CF809186018F5F8832B0F4909130
:102EB00085019817E1F3E82FF0E0E957FE4F6083B2
:102EC00091E090938401809386018091C900806293
:102ED0008093C90081E090E0089580E0E8CF0F93EF
:102EE0001F93CF93DF931F92CDB7DEB78B01409333
:102EF00007014F3F39F0842F49831CDC4981E42FBF
:102F0000F0E02FDC00FF09C0013080E1180728F451
:102F100082E08093C800C80105C01092C800C801B3
:102F20009695879501979093CD008093CC008091E2
:102F3000C90083FD10C01092B0011092AF01109231
:102F40008601109285011092840186E08093CA0068
:102F500088ED8093C9000F90DF91CF911F910F9161
:102F600008951F920F920FB60F9211242F938F93F3
:102F70009F93EF93FF939091CE008091B0018F5F6C
:102F8000803408F080E02091AF01821739F0E82FFB
:102F9000F0E0EF54FE4F90838093B001FF91EF91EA
:102FA0009F918F912F910F900FBE0F901F901895AA
:102FB0001F920F920FB60F9211248F939F93EF934E
:102FC000FF939091860180918501981306C08091AE
:102FD000C9008F7D8093C9000FC0809185018F5FEC
:102FE000883208F080E0E82FF0E0E957FE4F90814A
:102FF0009093CE0080938501FF91EF919F918F91E7
:103000000F900FBE0F901F9018951F920F920FB642
:103010000F9211248F93EF93FF931092840180916C
:1030200007018F3F21F0E0910701F0E09ADBFF916B
:10303000EF918F910F900FBE0F901F901895ECE7B6
:10304000F1E0128288EE93E0A0E0B0E08383948305
:10305000A583B68317828CE091E0918380830895E5
:10306000CF92DF92EF92FF920F931F93CF93DF9354
:103070006C01EB017B01E40EF51E00E010E0CE15C3
:10308000DF0561F06991D601ED91FC910190F0812D
:10309000E02DC6010995080F191FF1CFC801DF9176
:1030A000CF911F910F91FF90EF90DF90CF900895F7
:1030B000CF92DF92EF92FF92CF93DF93EC010FB6A6
:1030C000F894C0907101D0907201E0907301F0907B
:1030D00074010FBEE881F9810680F781E02DCE01F1
:1030E000099597FF1AC00FB6F8944091710150915D
:1030F000720160917301709174010FBE4C195D09EA
:103100006E097F098B819C81AD81BE81481759076B
:103110006A077B07F8F28FEF9FEFDF91CF91FF9067
:10312000EF90DF90CF900895FC0143835483658333
:1031300076830895CF92DF92EF92FF920F931F93C1
:10314000CF93DF936C017A018B01C0E0D0E0CE1504
:10315000DF0571F0C601ACDF97FF05C081E0F60125
:1031600087837E0105C0F80181938F012196EFCFFF
:10317000C701DF91CF911F910F91FF90EF90DF90EA
:10318000CF9008954F925F926F927F92AF92BF92CD
:10319000CF92DF92EF92FF920F931F93CF93DF9323
:1031A000CDB7DEB729013A019B01AC0124193509DD
:1031B0004609570989899A89AB89BC89BC01CD0127
:1031C0006A197B098C099D0934D4A8019701241937
:1031D00035094609570971D4CA01B9016A0D7B1D29
:1031E0008C1D9D1DDF91CF911F910F91FF90EF904E
:1031F000DF90CF90BF90AF907F906F905F904F9097
:103200000895089568DA0E94B810C0D8FECFCF9311
:10321000DF931F92CDB7DEB76983DC01ED91FC919E
:103220000280F381E02D41E050E0BE016F5F7F4FEF
:1032300009950F90DF91CF910895FC018FB7F89415
:103240009091FD01911102C090E010C093E0909325
:10325000E9009091F200911109C02091E80022FF4D
:10326000F3CF25FDF1CF2BE62093E8008FBF20851B
:10327000318537FD03C09F3F09F09F5F892F90E0A4
:103280000895CF93DF93EC018885998597FF09C056
:10329000E881F9810680F781E02DCE0109959987B3
:1032A000888788859985DF91CF910895FC012085D5
:1032B000318537FD07C04FEF5FEF51874087C90168
:1032C000992708959FB7F8948091FD01882369F0AC
:1032D00083E08093E9002BE68091E80085FD09C03A
:1032E00082FF03C02093E800F7CF9FBF8FEF9FEFCF
:1032F00008958091F1002091E80025FD03C02BE6A0
:103300002093E8009FBF90E00895DF92EF92FF9234
:103310000F931F93CF93DF938C01EB018091FD01FD
:10332000882371F07FB7F89484E08093E90080915E
:103330007901882369F08091E80085FD07C07FBF8F
:1033400081E0F801828320E030E0D1C01092790161
:1033500020E030E064E080E4F82EA1EFB0E09AE3F2
:10336000E92EE3E0DE2E4115510509F4BFC080913E
:10337000E400815F9091E80095FD16C07FBF9091B9
:10338000E400981304C081E08093790105C0909116
:10339000FD01911104C081E0F8018283A8C07FB7CC
:1033A000F8946093E900E6CF8091F2009F2D981B7E
:1033B000E92FF0E04E175F0708F4942FE92FF0E0B3
:1033C0004E1B5F0B2E0F3F1FE0E4E91BE03428F497
:1033D000EE0FFF27E251F64E099480C099919C931D
:1033E00099919C9399919C9399919C9399919C9379
:1033F00099919C9399919C9399919C9399919C9369
:1034000099919C9399919C9399919C9399919C9358
:1034100099919C9399919C9399919C9399919C9348
:1034200099919C9399919C9399919C9399919C9338
:1034300099919C9399919C9399919C9399919C9328
:1034400099919C9399919C9399919C9399919C9318
:1034500099919C9399919C9399919C9399919C9308
:1034600099919C9399919C9399919C9399919C93F8
:1034700099919C9399919C9399919C9399919C93E8
:1034800099919C9399919C9399919C9399919C93D8
:1034900099919C9399919C9399919C9399919C93C8
:1034A00099919C9399919C9399919C9399919C93B8
:1034B00099919C9399919C9399919C9399919C93A8
:1034C00099919C9399919C9399919C9399919C9398
:1034D00099919C9399919C9399919C938091E800E8
:1034E00085FFE092E800D0927B013DCF7FBFC9010C
:1034F000DF91CF911F910F91FF90EF90DF90089592
:103500002FEF3FEFFC013187208763DA0FB6F89485
:103510008091710190917201A0917301B091740139
:103520000FBE9C018091FD01882329F068EC70E0BA
:1035300080E090E00FCA8091FC01882301F10FB672
:10354000F8948091710190917201A0917301B091F2
:1035500074010FBE4091FC01442389F00FB6F8942A
:1035600040917101509172016091730170917401E9
:103570000FBE481B590B4B3F510560F311C00FB6EE
:10358000F8948091710190917201A0917301B091B2
:1035900074010FBE821B930B853C994008F4C2CF87
:1035A00008958F929F92AF92BF92CF92DF92EF9247
:1035B000FF920F931F93CF93DF93EC010FB6F89414
:1035C000C0907101D0907201E0907301F09074018D
:1035D0000FBE4115510509F461C08885998597FD95
:1035E0000FC0FB0180838FEF9FEF99878887415041
:1035F000510909F455C06F5F7F4FE1E0F0E002C070
:10360000E0E0F0E013E00BE68FB7F8949091FD0155
:10361000992331F01093E9009091E80092FD02C0E7
:103620008FBF39C02091F200A22FB0E04A175B078C
:1036300008F4242F362FDB019A2F931B921720F4C6
:103640009091F1009D93F8CF30E0620F731F90913D
:10365000E80095FF0093E8008FBFE20FF31F421BC5
:10366000530B09F10FB6F89480917101909172019A
:10367000A0917301B09174010FBE8C199D09AE0920
:10368000BF098B809C80AD80BE8088159905AA05F6
:10369000BB0508F4B9CF81E08F8305C080E001C08D
:1036A00081E090E001C0CF01DF91CF911F910F9198
:1036B000FF90EF90DF90CF90BF90AF909F908F9052
:1036C00008959FB7F8948091FD01882321F080919F
:1036D0007B01811102C09FBF089584E08093E900BF
:1036E0008AE38093E80010927B01F5CFEACF8091C6
:1036F000FB0181700895E1EFF1E08AE0DF011D92A6
:103700008A95E9F788EE93E0A0E0B0E083839483A4
:10371000A583B6838CE191E09183808308950CD0DA
:10372000EBC0E3D040F0DAD030F021F45F3F19F085
:10373000CCC0511115C1CFC0F0D098F39923C9F373
:103740005523B1F3951B550BBB27AA2762177307A7
:10375000840738F09F5F5F4F220F331F441FAA1F5B
:10376000A9F333D00E2E3AF0E0E830D0915050401B
:10377000E695001CCAF729D0FE2F27D0660F771FC9
:10378000881FBB1F261737074807AB07B0E809F0AB
:10379000BB0B802DBF01FF2793585F4F2AF09E3F40
:1037A000510568F092C0DCC05F3FECF3983EDCF35B
:1037B000869577956795B795F7959F5FC9F7880FB9
:1037C000911D9695879597F90895E1E0660F771F0B
:1037D000881FBB1F621773078407BA0720F0621B9C
:1037E000730B840BBA0BEE1F88F7E095089504D095
:1037F0006894B111B5C0089598D088F09F5790F0A3
:10380000B92F9927B751A0F0D1F0660F771F881F05
:10381000991F1AF0BA95C9F712C0B13081F09FD044
:10382000B1E008959CC0672F782F8827B85F39F0E2
:10383000B93FCCF3869577956795B395D9F73EF464
:1038400090958095709561957F4F8F4F9F4F08950C
:10385000E89409C097FB3EF490958095709561952A
:103860007F4F8F4F9F4F9923A9F0F92F96E9BB27E0
:103870009395F695879577956795B795F111F8CF5C
:10388000FAF4BB0F11F460FF1BC06F5F7F4F8F4FC7
:103890009F4F16C0882311F096E911C0772321F0BD
:1038A0009EE8872F762F05C0662371F096E8862F55
:1038B00070E060E02AF09A95660F771F881FDAF7AC
:1038C000880F9695879597F9089597F99F6780E8EF
:1038D00070E060E008959FEF80EC089500240A9462
:1038E0001616170618060906089500240A941216DB
:1038F0001306140605060895092E0394000C11F40E
:10390000882352F0BB0F40F4BF2B11F460FF04C0BA
:103910006F5F7F4F8F4F9F4F089557FD9058440F13
:10392000551F59F05F3F71F04795880F97FB991F1E
:1039300061F09F3F79F087950895121613061406DB
:10394000551FF2CF4695F1DF08C016161706180668
:10395000991FF1CF86957105610508940895E89443
:10396000BB2766277727CB0197F908950BD0C4CFE3
:10397000B5DF28F0BADF18F0952309F0A6CFABCF5A
:103980001124EECFCADFA0F3959FD1F3950F50E03D
:10399000551F629FF001729FBB27F00DB11D639F01
:1039A000AA27F00DB11DAA1F649F6627B00DA11DA7
:1039B000661F829F2227B00DA11D621F739FB00D4D
:1039C000A11D621F839FA00D611D221F749F3327BD
:1039D000A00D611D231F849F600D211D822F762F56
:1039E0006A2F11249F5750408AF0E1F088234AF053
:1039F000EE0FFF1FBB1F661F771F881F915050409F
:103A0000A9F79E3F510570F060CFAACF5F3FECF35E
:103A1000983EDCF3869577956795B795F795E7958A
:103A20009F5FC1F7FE2B880F911D9695879597F99B
:103A30000895DB018F939F9371D0BF91AF91A29FA7
:103A4000800D911DA39F900DB29F900D112408959C
:103A500097FB072E16F4009406D077FD08D068D0A7
:103A600007FC05D03EF4909581959F4F0895709581
:103A700061957F4F0895A1E21A2EAA1BBB1BFD0181
:103A80000DC0AA1FBB1FEE1FFF1FA217B307E4073D
:103A9000F50720F0A21BB30BE40BF50B661F771F95
:103AA000881F991F1A9469F7609570958095909575
:103AB0009B01AC01BD01CF010895052E97FB16F4C3
:103AC00000940FD057FD05D0D6DF07FC02D046F496
:103AD00008C050954095309521953F4F4F4F5F4F0F
:103AE000089590958095709561957F4F8F4F9F4F6A
:103AF0000895EE0FFF1F0590F491E02D0994A29F09
:103B0000B001B39FC001A39F700D811D1124911DB1
:103B1000B29F700D811D1124911D0895F0DFA59FA6
:103B2000900DB49F900DA49F800D911D11240895B8
:103B3000AA1BBB1B51E107C0AA1FBB1FA617B707D3
:103B400010F0A61BB70B881F991F5A95A9F78095EF
:0C3B50009095BC01CD010895F894FFCFC2
:103B5C0000E10000000008FF0000000028173018EA
:103B6C00E9160B17F8162317000000000719851922
:083B7C001D1956194119761BB1
:00000001FF
